:100000000C946C050C94B3050C94B3050C94B305D7
:100010000C94B3050C94B3050C94B3050C94B30580
:100020000C94B3050C94B3050C94EA1F0C94BD20FA
:100030000C9456170C94B3050C94B3050C94B305AB
:100040000C94B3050C94B3050C94B3050C94B30550
:100050000C94B3050C94BE170C94B3050C94B30523
:100060000C94B3050C94B3050C94B3050C94B30530
:100070000C94B3050C94B3050C94B3050C94B30520
:100080000C94B3050C94B3050C94B3050C94B30510
:100090000C94B3050C94B3050C94B3050C94B30500
:1000A0000C94B3050C94B3050C94B305290014000B
:1000B0001A000800150017001C0018000C001200A0
:1000C00013002D002A005F006000610056002B0025
:1000D00004001600070009000A000B000D000E00C6
:1000E0000F003400000028005C005D005E00570037
:1000F000E10000001D001B000600190005001100B2
:10010000100036003700E100000059005A005B0083
:1001100058000351E000E200E3000000025100003B
:100120002C000000E700E600E400025162006200DB
:100130006300015301000100010001000100010002
:10014000010001000100010001000100010049005F
:100150004A004B0000000100010001000100010005
:100160000100010001000100010001000000010088
:100170004C004D004E000000010000000100010095
:100180000100010001000100010001000100010067
:100190000000290052002C0028000100010001008D
:1001A000010000000100000001000000010001004A
:1001B00001000100500051004F00010035001E00F9
:1001C0001F0020002100220023002400250026001B
:1001D00027002E003100AA00A800A9005400010049
:1001E00001000100010001000100010001002F00D9
:1001F0003000330000000100AC00AE00AB00550041
:1002000001000000010001000100010001000100E7
:10021000010001000100380000000000AD000000F6
:100220002B0001000100010001000000010000009E
:10023000010000000100010001000100A5000453BD
:1002400053000553010001005200010001000100AC
:1002500001000100010001000100010001003A005D
:100260003B003C003D003900500051004F000100B0
:100270000100010001000100010001000000010077
:100280003E003F004000410001000000010001006D
:100290000100010001000100010001000100010056
:1002A000000042004300440045000100010001003D
:1002B0000100000001000000010000000100010039
:1002C00001000100680069006A006B000100010084
:1002D0000100010001000100010001000100010016
:1002E0000100010001000100010001000100010006
:1002F00001000100010001000100010001000100F6
:1003000001000100000001000100010001000100E6
:1003100001000000010001000100010001000100D6
:1003200001000100010001000000010001000100C6
:100330000100010001000100010000002C0000008C
:100340000251000001000100010001000100010054
:10035000010001000000000000000000000000009B
:10036000000000000000000000000000000000008D
:10037000000000000000000000000000000000007D
:10038000000000000000000000000000000000006D
:10039000000000000000000000000000000000005D
:1003A000000000000000000000000000000000004D
:1003B000000000000000000000000100000000003C
:1003C000000000000000000000000000000000002D
:1003D0000000010000000000000001000100010019
:1003E0000100010001000100010001000100010005
:1003F00001000100010001000100010001000100F5
:1004000001000100010001000100010001000100E4
:1004100001000100000001000100010001000100D5
:1004200001000000010001000100010001000100C5
:1004300001000100010001000000010001000100B5
:1004400001000100010001000100000001000000A6
:100450000100000001000100010001000100010095
:100460000100010001000100010001000100010084
:100470000100010001000100010001000100010074
:100480000100010001000100010001000100010064
:100490000100010001000100010001000000010055
:1004A0000100010001000100010000000100010045
:1004B0000100010001000100010001000100010034
:1004C0000000010001000100010001000100010025
:1004D0000100000001000000010000000100010017
:1004E0000100010001000100010001000100010004
:1004F00001000100010001000100010001000100F4
:1005000001000100010001000100010001000100E3
:1005100001000100010001000100010001000100D3
:1005200001000100000001000100010001000100C4
:1005300001000000010001000100010001000100B4
:1005400001000100010001000000010001000100A4
:100550000100010001000100010000000100000095
:100560000100000001000100010001000100010084
:100570000100010001000100010001000100010073
:100580000100010001000100010001000100010063
:100590000100010001000100010001000100010053
:1005A0000100010001000100010001000000010044
:1005B0000100010001000100010000000100010034
:1005C0000100010001000100010001000100010023
:1005D0000000010001000100010001000100010014
:1005E0000100000001000000010000000100010006
:1005F00001000100010001000100010001000100F3
:1006000001000100010001000100010001000100E2
:1006100001000100010001000100010001000100D2
:1006200001000100010001000100010001000100C2
:1006300001000100000001000100010001000100B3
:1006400001000000010001000100010001000100A3
:100650000100010001000100000001000100010093
:100660000100010001000100010000000100000084
:100670000100000001000100010001000100010073
:100680000100010001000100010001000100010062
:100690000100010001000100010001000100010052
:1006A0000100010001000100010001000100010042
:1006B0000100010001000100010001000000010033
:1006C0000100010001000100010000000100010023
:1006D0000100010001000100010001000100010012
:1006E0000000010001000100010001000100010003
:1006F00001000000010000000100000001000100F5
:1007000001000100010001000100010001000100E1
:1007100001000100010001000100010001000100D1
:1007200001000100010001000100010001000100C1
:1007300001000100010001000100010001000100B1
:1007400001000100000001000100010001000100A2
:100750000100000001000100010001000100010092
:100760000100010001000100000001000100010082
:100770000100010001000100010000000100000073
:100780000100000001000100010001000100010062
:100790000100010001000100010001000100010051
:1007A0000100010001000100010001000100010041
:1007B0000100010001000100010001000100010031
:1007C0000100010001000100010001000000010022
:1007D0000100010001000100010000000100010012
:1007E0000100010001000100010001000100010001
:1007F00000000100010001000100010001000100F2
:1008000001000000010000000100000001000100E3
:1008100001000100010001000100010001000100D0
:1008200001000100010001000100010001000100C0
:1008300001000100010001000100010001000100B0
:1008400001000100010001000100010001000100A0
:100850000100010000000100010001000100010091
:100860000100000001000100010001000100010081
:100870000100010001000100000001000100010071
:100880000100010001000100010000000100000062
:100890000100000001000100010001000100010051
:1008A0000100010001000100010001000100010040
:1008B0000100010001000100010001000100010030
:1008C0000100010001000100010001000100010020
:1008D0000100010001000100010001000000010011
:1008E0000100010001000100010000000100010001
:1008F00001000100010001000100010001000100F0
:1009000000000100010001000100010001000100E0
:1009100001000000010000000100000001000100D2
:1009200001000100010001000100010012036B0041
:100930006500790062006F006100720064000000D1
:10094000160371006D006B006200750069006C0099
:1009500064006500720000000403090409026D00D0
:10096000040100A0FA0904000001030101000921AB
:10097000110100012240000705810308000A090453
:1009800001000103010200092111010001224D00B3
:100990000705820308000A090402000103000000A1
:1009A0000921110100012236000705830308000A0E
:1009B00009040300010300000009211101000122C4
:1009C0003900070584032000011201100100000016
:1009D00008EDFE606001000102000105010906A1A9
:1009E00001050719E029E715002501950875018122
:1009F00002050819012905950575019102950175F2
:100A00000391010507190029F71500250195F875CF
:100A1000018102C005010980A1018502160100269D
:100A200003001A81002A8300751095018100C0051A
:100A30000C0901A1018503160100269C021A010080
:100A40002A9C02751095018100C005010902A101CF
:100A50000901A100050919012905150025019505C0
:100A60007501810295017503810105010930093184
:100A70001581257F95027508810609381581257F26
:100A8000950175088106050C0A38021581257F95A8
:100A90000175088106C0C005010906A101050719F5
:100AA000E029E7150025019508750181029501757A
:100AB000088101050819012905950575019102951F
:100AC00001750391010507190029FF150026FF0094
:100AD000950675088100C00011241FBECFEFDAE033
:100AE000DEBFCDBF04B603FE27C080915B029091AC
:100AF0005C02A0915D02B0915E028730904BA740EE
:100B0000B04BD1F410925B0210925C0210925D0225
:100B100010925E0214BE84B7877F84BF0FB6F8942C
:100B2000A8958091600088618093600010926000B9
:100B30000FBEE0E0F8E3099511E0A0E0B1E0E2E0EB
:100B4000F8E402C005900D92AC33B107D9F722E06A
:100B5000ACE3B1E001C01D92AB35B207E1F70E94F2
:100B6000391D0C94FF230C94000090E080E0089560
:100B70000895089581E0089581FF03C06E9A7698E4
:100B800008956E98FCCF81E008950C94BA050E94F8
:100B9000CD0F2FEF84E39CE0215080409040E1F79F
:100BA00000C000000C94E317FF920F931F93CF93A4
:100BB000DF938C01FC01C081D1818091880181117A
:100BC0003FC082818823B9F1CE010E943415F82EEE
:100BD000682FCE010E94DA14BE018F2D0E941B07E0
:100BE000EC01B8010E94C505882309F44AC0B80188
:100BF000CE010E942B09882309F443C0C531F0E7D8
:100C0000DF0718F5C23080E7D80708F04BC0C115E0
:100C1000E0E7DE0789F1C130D047D1F181E0809370
:100C20003E0180933F01C801DF91CF911F910F9149
:100C3000FF900C94C305CE010E940915F82ECCCF6D
:100C4000CE010E943415BE01C9CFCC3380E7D8074E
:100C500009F4ACC0CD33D04709F7F801828188236D
:100C600009F4CBC010923F010E94881790933D0178
:100C700080933C0180E2A7C0F801828181110E942B
:100C8000C70580E0DF91CF911F910F91FF900895EC
:100C9000F80182818823A9F380911B0281608093EF
:100CA0001B02EFCFF8018281882309F4BCCF0E9498
:100CB000E516811102C00E94CB160E94021790E037
:100CC00090934D0280934C02FE01E350F0478091D7
:100CD0004C028160E231F105C8F4EF58F94F0C94F1
:100CE000AF2383068F06930697069B069F06A306EF
:100CF000A706AB06AF06B306B706BB06BF06C3061C
:100D0000C706CB06CF0680914C02826080934C02CE
:100D100080914C020E9406170E94CD0FB2CF8091A5
:100D20004C028460F3CF80914C028860EFCF8091B9
:100D30004C028061EBCF80914C028062E7CF8091C2
:100D40004C028064E3CF80914C028068DFCF8091B9
:100D50004C028460EACF80914C028E7FD7CF809185
:100D60004C028D7FD3CF80914C028B7FCFCF80916F
:100D70004C02877FCBCF80914C028F7EC7CF809172
:100D80004C028F7DC3CF80914C028F7BBFCF80916F
:100D90004C028F77BBCF80914C028B7FEACF909132
:100DA0004C02892F97FB87F98058B0CFF8018281D8
:100DB000882361F010923E010E94881790933D01B4
:100DC00080933C0182E00E94570D5BCF80913E01F1
:100DD00081110FC080913C0190913D010E949417B8
:100DE000883C910530F486E20E942C0C86E20E9439
:100DF000080D82E00E945E0D44CF80913F01811179
:100E00000FC080913C0190913D010E949417883C55
:100E1000910530F487E20E942C0C87E20E94080DB5
:100E200080E2E8CF0C947A090C947C090C94BC0500
:100E30000C9416070895972F70E021E1929F600DA2
:100E4000711D1124FB0194E4899FE00DF11D112413
:100E5000EE0FFF1FE455FF4F859194910895FC011B
:100E6000EE0FFF1FE45DF64F8591949108950E9467
:100E70001B070E94AA08811520E4920708F08DC084
:100E8000811540E3940708F0E8C0803E910508F022
:100E900071C0803C910508F0CCC0883A910580F47F
:100EA000853A910508F0CAC08130910509F46EC0F9
:100EB00020F08430910508F069C090E080E008954A
:100EC0008D3B9105D0F7883A910509F404C1893A20
:100ED000910509F403C18A3A910509F402C18B3ADC
:100EE000910509F401C18C3A910509F400C18B3BCD
:100EF000910509F4FFC08C3B910509F4FEC08D3AC1
:100F0000910509F4FDC0803B910509F4FCC08E3ABF
:100F1000910509F4FBC08F3A910509F4FAC0813BB1
:100F2000910509F4F9C0823B910509F4F8C0833BAF
:100F3000910509F4F7C0843B910509F4F6C0853B9F
:100F4000910509F4F5C0863B910509F4F4C0873B8F
:100F5000910509F4F3C0883B910509F4F2C0893B7F
:100F6000910509F4F1C08A3B910509F4F0C080E0D5
:100F700094E408958F3F910509F048F4803F91056E
:100F800008F067C0883E910508F097CF0895811555
:100F900020E2920708F05FC00895811543E59407A9
:100FA00060F5811522E5920708F062C0811541E5E0
:100FB000940708F058C0811520E5920708F450C046
:100FC0009C0154E0369527955A95E1F7922F93703E
:100FD000482F437021E030E002C0220F331F4A95B2
:100FE000E2F73C68392B86958695837040E2849FB2
:100FF000C0011124822B932B0895811545E5940798
:1010000050F4811524E5920708F446C0982F8827EC
:10101000846F906A0895811546E5940708F450C0DE
:101020009C0130569F702115304108F046CF9062E8
:101030000895805C91090E942F070895853A9105D3
:1010400009F443C0863A910509F042C082E890E471
:101050000895906508959F70EECF9927906C08953C
:101060009F70906A0895982F8827816F906A0895DD
:10107000AC014370552721E030E002C0220F331F3E
:101080004A95E2F78695869540E2849FC001112437
:10109000822B932B9C680895AC014370552721E067
:1010A00030E002C0220F331F4A95E2F786958695FD
:1010B00040E2849FC0011124822B932B9A680895EB
:1010C000982F882788279F71B2CF81E890E40895F0
:1010D00083E890E4089582EE94E4089589EE94E420
:1010E00008958AEE94E4089585EB94E4089586EBE0
:1010F00094E4089583EB94E4089584EB94E40895D4
:1011000087EB94E408958CEC94E408958DEC94E4DA
:10111000089583E895E408958AE895E4089582E9BE
:1011200095E4089584E995E4089581E296E40895AC
:1011300083E296E4089584E296E4089585E296E4D5
:10114000089586E296E4089587E296E408958AE297
:1011500096E41CCF8238910549F1B0F481339105B2
:1011600009F45CC048F48932910509F452C08A320E
:10117000910509F458C008958533910509F444C0D8
:101180008933910599F00895833E910531F138F442
:10119000803E910591F0823E9105B1F00895863E22
:1011A000910511F1873E910541F1089520914C027E
:1011B0002370C9F080EE90E0089520914C0220FF4A
:1011C00012C089E390E0089520914C0222FF0BC0E9
:1011D00024FF2EC090E080E0089520914C0222FD73
:1011E0002AC024FDF7CF089520914C0223FFFBCFA6
:1011F00024FDF0CF87EE90E0089520914C0223FF6C
:10120000F0CF86EE90E0089520914C0225FD16C0A7
:10121000089520914C0225FD14C0089520914C02A0
:1012200026FD12C0089520914C0226FD10C008959D
:1012300083EE90E0089582EE90E0089589E290E0D8
:10124000089585E390E008958AE290E0089581E3AF
:1012500090E0C9CF08950F931F93CF938C01FB01AA
:101260008281811106C0C1E08C2FCF911F910F9117
:101270000895C0914D01C11125C00531104799F75E
:101280000E942A0981E080934D010E948817909363
:101290004C0180934B011092400110924201109238
:1012A00041011092440110924301109246011092A4
:1012B0004501109248011092470110924A01109284
:1012C0004901D2CF80914B0190914C010E9494171B
:1012D000883C910540F680914001E82FF0E0EE0F48
:1012E000FF1FEF5BFE4F118300838F5F80934001F0
:1012F000C0E0BACF0C94B8050C94B90585B78068E6
:1013000085BF85B7806885BFA3E1B1E061E070E08B
:101310008D91E82FE295EF70F0E041A18F709B0175
:1013200001C0220F8A95EAF7922F9095942391A3FA
:1013300082A1822B82A381E0A432B80749F7A4E2FC
:10134000B1E061E070E08D91E82FE295EF70F0E0A0
:1013500041A18F709B0101C0220F8A95EAF7922F5D
:101360009095942391A382A1822B82A381E0A8323D
:10137000B80749F7EEE5F1E0AEE4B1E08EE691E0C2
:1013800011921192119211921D921D921D921D9215
:101390008E179F07A9F70C9412072F923F924F9236
:1013A0005F926F927F928F929F92AF92BF92CF92F5
:1013B000DF92EF92FF920F931F93CF93DF93CDB7FE
:1013C000DEB72A970FB6F894DEBF0FBECDBF23E17C
:1013D00031E03E832D8318861F82412C512C32012F
:1013E0004394AD81BE818D91BE83AD83E82FE2959C
:1013F000EF70F0E091A18F7021E030E002C0220F89
:10140000331F8A95E2F73C832B83822F892B81A39C
:1014100082A1922F9095892382A330EA3A95F1F721
:10142000730162010F8004C0CC0CDD1CEE1CFF1C9C
:101430000A94D2F74601570180949094A094B094F6
:101440008EE4282E81E0382EA4E2B1E0BA83A9838D
:101450003A86298680E0A985BA854D915D916D9186
:101460007C91A981BA811D91BA83A983212F2295EC
:101470002F7030E0D90190962C9130E01F7002C09F
:10148000359527951A95E2F78A0120FD79C09B01D1
:101490000C291D292E293F29A985BA850D931D9355
:1014A0002D933C931397A985BA850D911D912D918C
:1014B0003C91401751076207730709F081E02985C5
:1014C0003A852C5F3F4F3A872987A981BA81A85274
:1014D000B14009F0C0CF21A1922391A392A13B81F9
:1014E000932B92A3882349F041E040936E010E9420
:1014F00088179093700180936F018F819885019672
:1015000098878F83419709F06CCF80916E01882373
:10151000D9F080916F01909170010E949417069705
:1015200098F0EEE5F1E08EE591E0D1014D915D910D
:101530006D917D911D0141935193619371938A1730
:101540009B0799F710926E010E94140781E02A967A
:101550000FB6F894DEBF0FBECDBFDF91CF911F91C4
:101560000F91FF90EF90DF90CF90BF90AF909F9042
:101570008F907F906F905F904F903F902F90089545
:101580009B01082119212A213B2186CF94E0899FC4
:10159000F0011124E25AFE4F6081718182819381B2
:1015A0000895089590937601809375010895E091D0
:1015B0007501F0917601309721F00190F081E02DD6
:1015C000099480E00895E0917501F09176013097DB
:1015D00021F00280F381E02D09940895E0917501D6
:1015E000F0917601309721F00480F581E02D099487
:1015F000089520917301309174012817390771F013
:101600009093740180937301E0917501F0917601DC
:10161000309721F00680F781E02D099408952091FC
:101620007101309172012817390771F0909372019E
:1016300080937101E0917501F0917601309721F06E
:101640000084F185E02D0994089508950C94250BEC
:101650000E947F170E947E090C944F184F925F9250
:101660006F927F928F929F92AF92BF92DF92EF9292
:10167000FF920F931F93CF93DF93CDB7DEB72A97D7
:101680000FB6F894DEBF0FBECDBF0E94CD0928E78C
:10169000E22E21E0F22E10E000E0D02E802F0E94FA
:1016A000C60A4B015C01F701419051906190719025
:1016B0007F01481459046A047B0409F476C08091C0
:1016C0001B0281FD0E94D10A90E080E04824592449
:1016D0006A247B24B301A201082E04C07695679585
:1016E000579547950A94D2F740FF5AC08E83DF8200
:1016F000412C512C3201439404C0440C551C661CEF
:10170000771C8A95D2F784209520A620B72081E007
:1017100089288A288B2809F480E088870E94881706
:101720008160782F9A8789874E815F8168858A8555
:101730000E94020C000F111F000F111FF801E85842
:10174000FE4F80819181A281B38184259525A625B4
:10175000B72580839183A283B3830E94D31A0E940A
:10176000D70A909177018917B9F10E94D70A80931F
:1017700077012A960FB6F894DEBF0FBECDBFDF917A
:10178000CF911F910F91FF90EF90DF90BF90AF909E
:101790009F908F907F906F905F904F900C94180760
:1017A00001968131910509F095CF0F5F1F4F0430ED
:1017B000110509F072CF8FEF89838A831B820E9403
:1017C00088178160782F9D838C8349815A816B8132
:1017D0008D810E94020CC1CF2A960FB6F894DEBF0D
:1017E0000FBECDBFDF91CF911F910F91FF90EF9072
:1017F000DF90BF90AF909F908F907F906F905F90A1
:101800004F900895CF93DF93CDB7DEB72B970FB6E8
:10181000F894DEBF0FBECDBF4F83588769877A87A4
:101820008B871E821D8285E0FE013796DE011196B0
:1018300001900D928A95E1F749815A816B817C81F3
:101840008D819E812B960FB6F894DEBF0FBECDBF63
:10185000DF91CF910C947F12882309F4D8C082388D
:1018600071F40E94D70A81FDD2C089E30E94D41589
:101870000E949C1689E30E9411160C949C168338D2
:1018800059F40E94D70A80FDC2C083E50E94D41596
:101890000E949C1683E5EFCF843859F40E94D70A42
:1018A00082FDB5C087E40E94D4150E949C1687E48F
:1018B000E2CF9CEF980F913A18F40E94D415DDCF37
:1018C00090E2980F983050F4877091E001C0990F22
:1018D0008A95EAF7892F0E945316CFCF9BE5980F80
:1018E000933070F4853A31F0863A39F083E890E02D
:1018F0000C94F90A81E890E0FBCF82E890E0F8CF01
:1019000098E5980F953108F082C0883A09F440C0F4
:10191000893A09F440C08A3A09F440C08B3A09F484
:1019200040C08C3A09F440C08B3B09F440C08C3B6A
:1019300009F440C08D3A09F440C0803B09F440C02E
:101940008E3A09F440C08F3A09F440C0813B09F453
:1019500040C0823B09F440C0833B09F440C0843B53
:1019600009F440C0853B09F440C0863B09F440C0FF
:10197000873B09F440C0883B09F440C0893B09F427
:1019800040C08A3B09F440C090E080E00C940F0B0B
:1019900082EE90E0FBCF89EE90E0F8CF8AEE90E007
:1019A000F5CF85EB90E0F2CF86EB90E0EFCF83EBC5
:1019B00090E0ECCF84EB90E0E9CF87EB90E0E6CFCE
:1019C0008CEC90E0E3CF8DEC90E0E0CF83E891E009
:1019D000DDCF8AE891E0DACF82E991E0D7CF84E9E0
:1019E00091E0D4CF81E292E0D1CF83E292E0CECFFA
:1019F00084E292E0CBCF85E292E0C8CF86E292E02B
:101A0000C5CF87E292E0C2CF8AE292E0BFCF0895CD
:101A1000882309F44BC0823871F40E94D70A81FFF1
:101A200045C089E30E94D4150E949C1689E30E9458
:101A300011160C949C16833859F40E94D70A80FF23
:101A400035C083E50E94D4150E949C1683E5EFCF34
:101A5000843859F40E94D70A82FF28C087E40E9484
:101A6000D4150E949C1687E4E2CF9CEF980F913A20
:101A7000F0F290E2980F983050F4877091E001C036
:101A8000990F8A95EAF7892F0E945916D2CF9BE5C4
:101A9000980F933020F490E080E00C94F90A885A73
:101AA000853120F490E080E00C940F0B089588239A
:101AB00021F00E9453160C949C160895882321F05F
:101AC0000E9459160C949C1608958F929F92AF9283
:101AD000BF92DF92EF92FF920F931F93CF93DF930A
:101AE0007C01D62FC72FFC01058102950F70128152
:101AF00011110E9472160E94CD15D82E882371F004
:101B0000112321F180E28D0F883000F182E00E94E4
:101B1000B7150E94CD1591E0D82ED926EC2FE2956D
:101B2000EF70F0E0EA56F24F0C94AF23A80DA80D29
:101B3000F80DF80D3A0E560ED50DD50D610ED50DDA
:101B4000F90EF90E6C0FD50DD50D750FD12CE6CF12
:101B50000C2F0F70C07F11F00295007F1123A9F0A8
:101B6000002359F080E28D0F883010F0D11109C0A8
:101B7000802F0E9453160E949C168D2F0E942C0CC1
:101B800014C0802F0E946416F6CF8D2F0E94080D7E
:101B9000002359F080E28D0F883010F0D11124C05D
:101BA000802F0E9459160E949C16DD2009F4A4C1C2
:101BB0000E94AA1580FDA0C1F70112820E94A415FF
:101BC0000E941E14C7010E94880F0E94A415DF9175
:101BD000CF911F910F91FF90EF90DF90BF90AF904A
:101BE0009F908F900C943F14802F0E946A16DBCF39
:101BF000FC2FFF70BF2EC07FC03219F0B29480EF6F
:101C0000B822DD2369F0D13029F1112369F10023D5
:101C100059F0F701858180FFB0CF8F70858304C0B4
:101C2000112361F0011104C08B2D0E94570DBDCF0F
:101C30008B2D0130D1F70E948616B7CF011106C057
:101C40000E9489168B2D0E945E0DAFCF013009F4E2
:101C5000ACCFF6CF112321F0063008F0A6CFE4CFA9
:101C6000053008F0A2CFEECF002361F38D2F0E9444
:101C7000080D9BCF8C2F86958695837069F08130F7
:101C800009F093CF8D2F9C2F9370111102C090E01B
:101C900080E00E940F0B89CF8D2F9C2F9370111124
:101CA00002C090E080E00E94F90A7FCF8D2F1123BF
:101CB00029F00E94DC190E94C81A77CF0E94441AAA
:101CC000FACF8C2F837009F047C011116ECF2D2FE2
:101CD000229526952770220F220F6D2F6F70862E6A
:101CE000912CB12CA12C022E04C0880C991CAA1C8A
:101CF000BB1C0A94D2F760E070E0CB01D4FF0FC0A8
:101D00006FE070E080E090E004C0660F771F881FEE
:101D1000991F2A95D2F76095709580959095C695F4
:101D2000C695C370C23051F080F4682979298A2998
:101D30009B29C13071F00E94C71337CF68297929D8
:101D40008A299B290E94E31330CF0E94C713C50143
:101D5000B4010E94AB1329CF8695112311F08C2F6B
:101D60008170882309F421CF2D2F22952695277085
:101D7000220F220F6D2F6F70862E912CB12CA12C6B
:101D8000022E04C0880C991CAA1CBB1C0A94D2F712
:101D900060E070E0CB01D4FF0FC06FE070E080E046
:101DA00090E004C0660F771F881F991F2A95D2F70D
:101DB0006095709580959095C695C695C370C23014
:101DC00051F080F4682979298A299B29C13071F062
:101DD0000E94A114EACE682979298A299B290E94A8
:101DE000BD14E3CE0E94A114C501B4010E94851464
:101DF000DCCEE0E2ED0FE53108F062C0F0E0ED5F2F
:101E0000F04F0C94AF23180F180F180F180F180F5E
:101E1000180F180F180F180F180F180F180F180F8A
:101E2000180F180F180F250F330F3A0F410F4B0FD4
:101E3000DF708C2F8F71112321F00E941E148D2FC3
:101E4000F4CE0E943F148D2FFECE112341F00530B9
:101E500008F0ABCE8C2F8F710E946414A6CE063092
:101E600008F0A3CEF7CF8C2F8F71112339F00E9489
:101E70001E149BCE8C2F8F711123C9F30E943F1427
:101E800094CE112329F08C2F8F710E9409148DCECE
:101E90000E94FF138ACE112349F0CF718C2F0E942C
:101EA0001E1463E08C2F0E94AE157FCE81E00E944D
:101EB000B715023008F479CE82E00E94B71575CECE
:101EC000112329F0011159CE8C2F8F71D0CF011120
:101ED000CDCE8C2F8F71D2CF4C2F4F706D2FC7016D
:101EE0000E94B5050E94281360CE4C2F4F706D2FB5
:101EF000C7010E941A0759CEDF91CF911F910F9110
:101F0000FF90EF90DF90BF90AF909F908F900895DB
:101F10000F931F93CF93DF93EC01988189812B81DD
:101F20003C81232B39F08F3F19F481E09F3F19F05A
:101F300080E001C081E080FD17C0CE010E94D40581
:101F4000882391F0688179818A810E9480158C01B3
:101F50000E94D9140E94A013B801CE01DF91CF9145
:101F60001F910F910C94650DDF91CF911F910F91EF
:101F700008950E9472160E9483160E9445160E94C0
:101F80009C160E94751B0E94C81A90E080E00E9477
:101F9000F90A90E080E00C940F0B0E9461160C94FB
:101FA000B90F0E947615E92FE295EF70E250EE30FE
:101FB000E0F4F0E0E252F04F0C94AF23EC0FEC0FA2
:101FC000F50FF50FF70FF50FF50FF50FEC0FEC0F01
:101FD000FC0FF50FF50FFC0F803F19F020F4803E49
:101FE00020F481E00895843FE1F380E00895803E8D
:101FF000C0F3813FD1F7F5CF93FB882780F908958F
:10200000CF93DF9300D000D01F92CDB7DEB70F90F3
:102010000F900F900F900F90DF91CF910895CF9375
:10202000DF9300D000D000D0CDB7DEB726960FB634
:10203000F894DEBF0FBECDBFDF91CF9108951F93FF
:10204000CF93DF93C091890116E080918A018C13B0
:1020500004C0DF91CF911F910895D0E01C9FF00143
:102060001D9FF00D1124E557FE4F40815181628183
:102070007381848195810E940F102196C770E5CFEE
:102080004091BB015091BC016091BD017091BE01B6
:102090008091BF019091C0010C940F101F93CF93BA
:1020A000DF938091C001807FD1F48091BD018823AE
:1020B000B1F080918901D0918A01B091BB01C091AA
:1020C000BC014091BE015091BF01A1E0BF3F09F0AA
:1020D000A0E0BA016095709516E0D81304C0DF91B6
:1020E000CF911F91089521E04115510521F02A2F2C
:1020F000CF3F09F020E090E020FD38C0189FF001AC
:10210000199FF00D1124E557FE4F21812C132EC08D
:1021100020812B132BC02281211128C023813481DF
:102120002417350700F1241B350B283C3105F0F44A
:102130002091C0012F7020612093C00126E0289FCC
:10214000F001299FF00D1124E057FE4F80818F7020
:10215000806180838BEB91E00E94880FDF91CF91AB
:102160001F910C941F10260F371FDFCF0196877029
:10217000B4CFAF92BF92CF92DF92EF92FF920F93C4
:102180001F93CF93DF93CDB7DEB761970FB6F89467
:10219000DEBF0FBECDBF8C0185E0F801DE011D96CC
:1021A00001900D928A95E1F7D8014C9111965C91BE
:1021B00011971296EC903091BB016091BC01809117
:1021C000BE019091BF0121E0009731F06F3F19F4FB
:1021D00021E03F3F09F020E0B22FB170BB2E20FD7F
:1021E00080C1F801C380D480A090BD01AA2009F469
:1021F00027C1C816D906D0F1D601A81BB90BCD014D
:10220000FF24F394883C910508F0F12C8091C001E3
:10221000982F907FFF2009F4CAC0911187C0FE2C2F
:10222000651329C0341327C0E11025C08F70806169
:102230008093C0010E9440108BEB91E00E94880FB8
:102240008091C001F80185838F2D61960FB6F894B7
:10225000DEBF0FBECDBFDF91CF911F910F91FF90D9
:10226000EF90DF90CF90BF90AF90089580959095BC
:102270008C0D9D1DC5CF81E0CD2831F05F3F19F455
:1022800081E04F3F09F080E080FD24C081E08E2591
:10229000F82FF170DF2E80FF3FC0809189012091DF
:1022A0008A0136E0821318C04D875E878D859E8532
:1022B0000E947615292F22952F70223008F12430A4
:1022C00030F59F7009F1D80115969C91907FE1F44B
:1022D000FB2CBACF80E0DCCF90E0389FF001399F33
:1022E000F00D1124E557FE4F6181561306C0608141
:1022F000461303C062816E110FC001968770D2CF62
:102300009F7011F0882321F3805E883008F3C801A4
:102310000E94880FBD2CDCCFEE2009F495CF809170
:10232000C00181608093C001F12C8ECF651312C073
:10233000341310C0E1100EC0F8018583C8010E945B
:10234000880F86E0F801ABEBB1E001900D928A9521
:10235000E1F741C04D875E878D859E850E94D10F34
:10236000882309F4C8C0EE2009F4C5C08091C001DB
:10237000803270F02091BB013091BC0138872F83EF
:102380001986DB86CA868C87CE0107960E94880F45
:1023900086E0F801ABEBB1E001900D928A95E1F790
:1023A0000E944E100E944010FF24F3944DCF9111D3
:1023B00015C07C2DD98AC88A6E2D89890E9400108B
:1023C0008BEB91E00E94880F86E0EBEBF1E0DF0100
:1023D0001D928A95E9F70E94401036CF651312C00E
:1023E000341310C0E1100EC0F8018583C8010E94AB
:1023F000880FEBEBF1E086E0DF011D928A95E9F7AB
:10240000FA2C22CF4D875E878D859E850E94D10F45
:10241000882309F470C0EE2009F46DC08091C001DA
:10242000803208F4B5CF2091BB013091BC013A83D2
:1024300029831B82DD82CC828E83CE010196A6CFBA
:10244000C816D90638F1F601E81BF90BCF01F12CBB
:10245000883C910508F03DC0FE2CEE2009F44BC0ED
:10246000651326C0341324C08091C00180FD17C0BD
:10247000982F907FA1F0D80115968C931597903FD7
:1024800009F45CCF982F907F905F8F70892B159601
:102490008C9354CF809590958C0D9D1DD8CF86E060
:1024A000F801ABEBB1E001900D928A95E1F7CCCE4B
:1024B0004D875E878D859E850E94D10F811168CFE3
:1024C0008091C00181608093C001C8010E94880F83
:1024D000BBCE7C2DD98AC88A6E2D89890E940010B6
:1024E00073CFEE2041F04D875E878D859E850E94DB
:1024F000D10F81114DCFC8010E94880F55CF1F9376
:10250000CF93DF93CDB7DEB72C970FB6F894DEBF2D
:102510000FBECDBF4F83588769877A878B879C878B
:10252000CE0107960E94B910882309F442C09F810A
:1025300088852A853B85232B39F08F3F19F481E06C
:102540009F3F19F080E001C081E080FD08C04F810D
:10255000588569857A858B859C850E940F1016E0C9
:102560008091890190918A01891709F467C0819F40
:10257000C001112485579E4F0E94B910882309F489
:102580005DC0E09189011E9FF0011124E557FE4FC7
:102590004081518162817381848195810E940F10F5
:1025A0008091890190E00196877099278093890135
:1025B000D7CF86E0FE013796DE01119601900D928D
:1025C0008A95E1F79F8188852A853B85232B39F001
:1025D0008F3F19F481E09F3F19F080E001C081E056
:1025E00080FDBDCF20918A0130E0C901019687703E
:1025F0009927409189014817190699F096E0929F12
:10260000D001939FB00D1124A557BE4FFE01319606
:1026100001900D929A95E1F780938A010E941F1014
:102620009ECF0E94CD0F10928A011092890186E000
:10263000EBEBF1E0DF011D928A95E9F72C960FB6DE
:10264000F894DEBF0FBECDBFDF91CF911F910895EB
:10265000EF92FF920F931F93CF93DF938C01892BFF
:1026600081F0F12CEE24E394E8012196F8018491A5
:10267000843770F4843008F05FC08130B1F082306C
:10268000A1F1DF91CF911F910F91FF90EF900895ED
:10269000853709F44CC008F43DC09CE7980F90378B
:1026A00080F78F770E94080D49C00E5F1F4FFE0113
:1026B000849190E2980F983060F48770FE2D01C0ED
:1026C000FF0F8A95EAF78F2F0E9475160E949C16BD
:1026D00002C00E942C0C8F2D815030F2EFE9FFE0F8
:1026E0003197F1F700C00000F7CF0E5F1F4FFE01DA
:1026F000849190E2980F983050F48770FE2D01C0BD
:10270000FF0F8A95EAF78F2F0E947B16DFCF0E947A
:10271000080DE1CF0E5F1F4FFE01C491C150D8F2EA
:102720008FE99FE00197F1F700C00000F7CF0E5F3F
:102730001F4FFE01F490CFCF0E942C0C8E01CBCF07
:1027400008956093F2017093F3018093F4019093E4
:10275000F5010C94B90F0F931F930091F2011091A2
:10276000F3012091F4013091F501DC01CB01802BC4
:10277000912BA22BB32B8093F2019093F301A093A2
:10278000F401B093F5011F910F910C94B90F0F93C1
:102790001F930091F2011091F3012091F401309107
:1027A000F501DC01CB0180239123A223B323809385
:1027B000F2019093F301A093F401B093F5011F91FE
:1027C0000F910C94B90F0F931F930091F201109188
:1027D000F3012091F4013091F501DC01CB01802758
:1027E0009127A227B3278093F2019093F301A0933E
:1027F000F401B093F5011F910F910C94B90F109251
:10280000EE011092EF011092F0011092F1010C9480
:10281000B90F41E050E060E070E004C0440F551F84
:10282000661F771F8A95D2F74093EE015093EF0110
:102830006093F0017093F1010C94B90F41E050E006
:1028400060E070E004C0440F551F661F771F8A9533
:10285000D2F78091EE019091EF01A091F001B0913B
:10286000F101842B952BA62BB72B8093EE0190932F
:10287000EF01A093F001B093F1010C94B90F41E086
:1028800050E060E070E004C0440F551F661F771FE2
:102890008A95D2F740955095609570958091EE019C
:1028A0009091EF01A091F001B091F1018423952363
:1028B000A623B7238093EE019093EF01A093F0013C
:1028C000B093F1010C94B90F41E050E060E070E08A
:1028D00004C0440F551F661F771F8A95D2F7809159
:1028E000EE019091EF01A091F001B091F1018427E8
:1028F0009527A627B7278093EE019093EF01A09329
:10290000F001B093F1010C94B90F0F931F93009154
:10291000EE011091EF012091F0013091F101DC0105
:10292000CB01802B912BA22BB32B8093EE019093A4
:10293000EF01A093F001B093F1011F910F910C945E
:10294000B90F0F931F930091EE011091EF012091A9
:10295000F0013091F101DC01CB0180239123A2230E
:10296000B3238093EE019093EF01A093F001B09315
:10297000F1011F910F910C94B90F0F931F930091C8
:10298000EE011091EF012091F0013091F101DC0195
:10299000CB0180279127A227B3278093EE01909344
:1029A000EF01A093F001B093F1011F910F910C94EE
:1029B000B90F089521E1929F800D1124982F9770EF
:1029C00071E001C0770F9A95EAF78695869586950E
:1029D00025E0829FC001112450E040E0A62FB0E026
:1029E000FC01E40FF51FEF53FE4F60819D01042EA3
:1029F00002C0369527950A94E2F721702195262783
:102A00002723262720834F5F5F4F4530510541F72D
:102A1000089521E1929F800D1124982F977086953B
:102A20008695869525E0829FA001112470E060E0E4
:102A300080E0FA01E60FF71FEF53FE4F208130E0F0
:102A4000092E02C0369527950A94E2F721703327A4
:102A5000062E01C0220F0A94EAF7822B6F5F7F4F88
:102A60006530710531F70895BF92CF92DF92EF92F2
:102A7000FF920F931F93CF93DF938C01C090EE01D1
:102A8000D090EF01E090F001F090F1018091F2011F
:102A90009091F301A091F401B091F501C82AD92ACF
:102AA000EA2AFB2ACFE1D0E0BC2ED701C6010C2ECA
:102AB00004C0B695A795979587950A94D2F780FD9F
:102AC0000EC0219788F7B12C8B2DDF91CF911F91EC
:102AD0000F91FF90EF90DF90CF90BF900895B801D5
:102AE0008C2F0E943707019761F3EECFCF93DF93CE
:102AF000EC010E943415BE01DF91CF910C94370791
:102B00001F93CF93DF93EB0190918801992331F0CC
:102B1000CB01DF91CF911F910C947615882379F02A
:102B2000CB010E943415182F682FCE010E94DA14B1
:102B3000BE01812FDF91CF911F910C943707CB01FC
:102B40000E940915182FF4CF8091F601859585957F
:102B5000859508958091F6018770089598E0899F82
:102B600090011124622B6093F6010C941E14909135
:102B7000F601809589238093F601282F277061F450
:102B8000282F082E000C330B9217130629F0859579
:102B9000859585950C943F1408959091F601977052
:102BA00081E009F480E00895909112019923E1F009
:102BB00090914C0297FF18C0E82FE695E695E695B0
:102BC000EF3139F12091000130910101E20FF32F33
:102BD000F11D877021E030E001C0220F8A95EAF7ED
:102BE0008181822B81830895209100013091010120
:102BF000F90132969FEF40E05191851751F09F3FC8
:102C000019F4511101C0942F4F5F4E31A9F79F3F26
:102C100009F40895290F311D97FD3A95F901828332
:102C20000895909112019923F1F090914C0297FF31
:102C30001AC0E82FE695E695E695EF3129F1209147
:102C4000000130910101E20FF32FF11D282F2770B1
:102C500081E090E001C0880F2A95EAF78095918184
:102C60008923818308952091000130910101F901A8
:102C70003296205E3F4F9191891303C0DF01119777
:102C80001C92E217F307B9F7089581E090E0E09114
:102C90000001F0910101E80FF91F108201968032C6
:102CA0009105A9F7089590911A02892B80931A0231
:102CB0000895982F909580911A02892380931A0283
:102CC000089510921A02089590911902892B809309
:102CD00019020895982F9095809119028923809365
:102CE0001902089510921902089590911802892BE3
:102CF000809318020895982F909580911802892347
:102D00008093180208951092180208958093F70195
:102D100008951092F701089520910001309101016A
:102D2000F9013196205E3F4F80E0919191118F5FC4
:102D3000E217F307D1F70895E0910001F091010146
:102D400080911A028083E0910001F091010180815D
:102D500090911902892B8083E0910001F09101018B
:102D6000808190911802892B80839091F70199239B
:102D700061F0E0910001F09101018081892B808355
:102D80000E948C1681111092F701809100019091A0
:102D900001010C94E30A6DEE7EEF90E080E00E946A
:102DA000E92360E082E090E00E94D72360E083E0C6
:102DB00090E00E94D72360E084E090E00E94D72357
:102DC00060E085E090E00C94D72390E080E00E94E2
:102DD000D12321E08D3E9E4F09F020E0822F0895FF
:102DE00082E090E00C94C923682F82E090E00C947C
:102DF000D72383E090E00C94C923682F83E090E010
:102E00000C94D72384E090E00C94C923682F84E0CD
:102E100090E00C94D72380915202843039F11092C3
:102E20001C0288E190E020E40FB6F894A895809306
:102E300060000FBE2093600080E00E94180783B7F7
:102E4000817F846083BF83B7816083BF78948895D6
:102E500083B78E7F83BF0FB6F894A89580916000EA
:102E6000886180936000109260000FBE08950895FD
:102E70000895CF930E9437170E94CD090E943817FA
:102E8000C0E08C2F0E94C60A672B682B692B31F497
:102E9000CF5FC430B1F780E0CF91089581E0FCCFDF
:102EA0000E94CD0F0E94D70A0C9418071F920F9210
:102EB0000FB60F9211248F939F93AF93BF9380917E
:102EC0001C02811113C08091480290914902A09187
:102ED0004A02B0914B024196A11DB11D8093480258
:102EE00090934902A0934A02B0934B02BF91AF91D5
:102EF0009F918F910F900FBE0F901F90189582E0B9
:102F000084BD93E095BD9AEF97BD80936E000895C0
:102F10002FB7F8948091480290914902A0914A02FB
:102F2000B0914B022FBF0895CF92DF92EF92FF92A4
:102F30000F931F932FB7F894409148025091490284
:102F400060914A0270914B022FBF6A017B01EE240F
:102F5000FF248C0130E020E0C016D106E206F30623
:102F600050F0481B590BCA011F910F91FF90EF9031
:102F7000DF90CF90089541505109F3CF1F920F92E7
:102F80000FB60F9211248F939F93AF93BF938091AD
:102F9000480290914902A0914A02B0914B020196D9
:102FA000A11DB11D8093480290934902A0934A024B
:102FB000B0934B02BF91AF919F918F910F900FBE35
:102FC0000F901F9018950E946F1FF8942FEF87EABB
:102FD00091E6215080409040E1F700C0000087E07A
:102FE00090EBDC0180935B0290935C02A0935D0206
:102FF000B0935E0288E19CE00FB6F894A8958093A8
:1030000060000FBE90936000FFCF8F929F92AF92AF
:10301000BF92EF92FF920F931F93CF93C0E0E82EE1
:10302000F12C8C2F0E94C60A4B015C0110E000E0DD
:10303000D501C401002E04C0B695A7959795879534
:103040000A94D2F780FD13C00F5F1F4F01311105A5
:1030500079F7CF5FC43029F780E0CF911F910F91AE
:10306000FF90EF90BF90AF909F908F900895602F4A
:103070007C2F80E00E941B07E816F90629F781E003
:10308000ECCFCF93C82F8CE20E940518882321F043
:103090008C2FCF910C94051880E0CF910895CF9399
:1030A0000E94E516811102C00E94CB16C5E6C150F0
:1030B00009F0D1C089E20E9441188111F8C08AE26A
:1030C0000E94411881110E94CB1685E00E94411890
:1030D00081110E94E3170E94F01680931B0287E083
:1030E0000E944118882371F08BE10E9441188823C7
:1030F00009F4BAC090911B02892F8D7F91FF8260E5
:1031000080931B0280911B020E94F4160E940217FA
:1031100090E090934D0280934C0280EE0E94411803
:10312000882341F090914C02892F8E7F90FF81601F
:1031300080934C0289E30E944118882341F09091CA
:103140004C02892F8D7F91FF826080934C0282EE2A
:103150000E944118882341F090914C02892F8B7F67
:1031600092FF846080934C0286EE0E94411888236F
:1031700041F090914C02892F877F93FF8860809364
:103180004C0283EE0E944118882341F090914C023A
:10319000892F8F7E94FF806180934C0285E30E948B
:1031A0004118882341F090914C02892F8F7D95FF23
:1031B000806280934C0281E30E944118882341F091
:1031C00090914C02892F8F7B96FF806480934C02F4
:1031D00081E10E944118882341F090914C02892F8F
:1031E00097FB87F9805880934C0280914C020E9493
:1031F000061787E20E944118C82F8EE10E944118ED
:103200008111C2608FE10E9441188111C46080E287
:103210000E9441188111C86081E20E944118811109
:10322000C06182E20E9441188111C06283E20E9463
:1032300041188111C06484E20E944118882389F1F9
:10324000C0688C2F0E94FD166C2F70E090E080E02B
:10325000CF910C94A1130E94CD098FE39CE90197B3
:10326000F1F700C0000023CF8EE00E9441188823B0
:1032700039F090911B02892F8B7F92FF846040CFA1
:1032800080E10E94411890911B02882329F0892F28
:10329000877F93FF886034CF892F8E7F90FF816076
:1032A0002FCFC111CECF0E94F916682FCECFCF916C
:1032B000089580911F0280FF12C06091050185E092
:1032C000689FB0011124759567957595679560386D
:1032D0007105A8F561157105A1F1862F089581FF8B
:1032E00009C06091050185E0689FB00111247595C2
:1032F0006795EDCF82FF07C06091050185E0689F6B
:10330000B0011124E4CF209120022223A9F0909152
:1033100004016091050185E0689FB001112429171F
:10332000B0F6269FA001279F500D1124692F70E051
:10333000CA010E949B23CBCF65E070E0CECF8FE720
:10334000089581E0089580911F0280FF0CC0609174
:10335000030170E075956795759567956115710521
:1033600049F1862F089581FF06C06091030170E046
:1033700075956795F3CF6091030182FD0BC0909125
:1033800020029923A1F06091020180910301961718
:1033900038F0682F70E06038710500F38FE708950A
:1033A000899FC001112470E00E949B23F4CF61E04B
:1033B00070E0D7CF81E00895803F31F40E94591921
:1033C0008195809323020895813F19F40E94591931
:1033D000F8CF823F31F40E945919819580932202DF
:1033E0000895833F19F40E945919F8CF893F29F4B1
:1033F0000E94A3198093240208958A3F21F40E9419
:10340000A3198195F7CF8B3F31F40E94A3198195C1
:103410008093250208958C3F19F40E94A319F8CFD8
:10342000843F31F4809121028160809321020895CC
:10343000853F21F4809121028260F7CF863F21F4FD
:10344000809121028460F1CF873F21F48091210295
:103450008860EBCF883F21F4809121028061E5CF25
:103460008D3F31F480911F02816080931F02089587
:103470008E3F21F480911F028260F7CF8F3FB9F712
:1034800080911F028460F1CF803FC1F480912302BC
:1034900087FD109223028091220281110EC080913B
:1034A000230281110AC080912402811106C08091FB
:1034B0002502811102C0109220020895813F29F453
:1034C0008091230218162CF3E6CF90912202823FBE
:1034D00029F497FFE0CF10922202DDCF833F19F449
:1034E0001916CCF3D8CF893F39F4809124021816ED
:1034F00094F610922402CFCF8A3F29F480912402BF
:1035000087FFC9CFF6CF8B3F39F48091250287FF23
:10351000C2CF10922502BFCF8C3F29F480912502A3
:103520001816BCF3B8CF843F31F4809121028E7F0E
:1035300080932102B0CF853F21F4809121028D7FBD
:10354000F7CF863F21F4809121028B7FF1CF873F17
:1035500021F480912102877FEBCF883F21F4809175
:1035600021028F7EE5CF8D3F31F480911F028E7F47
:1035700080931F0290CF8E3F21F480911F028D7F98
:10358000F7CF8F3F09F087CF80911F028B7FF0CF5D
:1035900081E292E00E94EE0A0E94881790931E0238
:1035A00080931D0208951F93CF93DF9380911D0296
:1035B00090911E020E949417AC01909120022091DC
:1035C000060130E0911106C0209107018AE0289F92
:1035D000900111244217530780F080912202C0917C
:1035E000230210912402D091250281110AC0C11139
:1035F00078C0111176C0D11174C0DF91CF911F91A5
:1036000008959F3F19F09F5F90932002181624F4AD
:103610000E945919809322028091220287FF05C0DF
:103620000E9459198195809322021C1624F40E944D
:103630005919809323028091230287FF05C00E94BD
:10364000591981958093230260912202662331F1FA
:10365000C0912302CC2311F1062E000C770B880BAE
:10366000990B0E94A22223E333E343E35FE30E942A
:1036700006230E946A22609322026C2FCC0F770BE4
:10368000880B990B0E94A22223E333E343E35FE319
:103690000E9406230E946A2260932302111624F4DA
:1036A0000E94A319809324028091240287FF05C001
:1036B0000E94A3198195809324021D1624F40E9470
:1036C000A319809325028091250287FF05C00E94DF
:1036D000A319819580932502DF91CF911F910C94BE
:1036E000C81A9F3F09F08FCFA0CF85E0E1E2F2E05A
:1036F000DF011D928A95E9F71092200210921F02B5
:103700000895809146020895CF93DF9300D01F92D1
:10371000CDB7DEB79C0180915202843019F593E059
:1037200099833B832A839093E9008FEF9091E8007F
:10373000815095FD06C095ED9A95F1F70000811135
:10374000F5CF8091E80085FF0DC050E040E063E0D8
:1037500070E0CE0101960E94DF1D8091E8008E7717
:103760008093E8000F900F900F90DF91CF91089514
:10377000CF93DF9300D01F92CDB7DEB720915202D6
:10378000243031F522E02983805891099B838A8374
:1037900083E08093E9008FEF9091E800815095FDE0
:1037A00006C095ED9A95F1F700008111F5CF809153
:1037B000E80085FF0DC050E040E063E070E0CE011E
:1037C00001960E94DF1D8091E8008E778093E800CB
:1037D0000F900F900F90DF91CF9108959C018091F1
:1037E00052028430F9F482E08093E9009FEF8091E7
:1037F000E800915085FD06C085ED8A95F1F700003F
:103800009111F5CF8091E80085FF0CC050E040E0B9
:1038100065E070E0C9010E94DF1D8091E8008E77AD
:103820008093E8000895CF93DF93EC0180915202DA
:103830008430F1F4909112019923E9F090914C02B7
:1038400097FF19C08093E9008FEF9091E8008150B5
:1038500095FD06C095E19A95F1F700008111F5CF2D
:103860008091E80050E040E060E270E085FD1AC021
:10387000DF91CF91089581E08093E9008FEF9091DF
:10388000E800815095FD06C095ED9A95F1F700008E
:103890008111F5CF8091E80085FFEACF50E040E04C
:1038A00068E070E0CE010E94DF1D8091E8008E7715
:1038B0008093E80080E2FE01A6E2B2E001900D9262
:1038C0008A95E1F7D5CF80915102811109C00E94FC
:1038D0006F1F0E94CC1F8091E20084608093E20001
:1038E0000895109251020895089508950C94501768
:1038F00042E061EC81E00E94ED1E42E061EC82E07A
:103900000E94ED1E42E061EC83E00E94ED1E42E267
:1039100061EC84E00C94ED1E80915402833009F434
:1039200055C030F4813071F1823009F491C00895AE
:103930008A3009F47DC08B3009F463C0893009F006
:1039400044C080915302813209F03FC080915702F8
:1039500090915802009711F00397B9F58091E80013
:10396000877F8093E8008091E80082FF2AC08091E1
:10397000F100809346028091E8008B778093E80005
:103980000C94211F80915302813AF9F48091E80050
:10399000877F8093E8008091570290915802892B8D
:1039A00061F460E286E292E070E00E942E1E809157
:1039B000E8008B778093E800089560E090E080E075
:1039C000F3CF809152028111CECF0895809153029E
:1039D000813AD9F78091570290915802892BA9F723
:1039E0008091E800877F8093E8008091E80080FF65
:1039F000FCCF809112018093F1008091E8008E77D6
:103A0000BDCF80915302813201F78091570290918E
:103A10005802892BD1F68091E800877F8093E800D7
:103A20000E94211F80915502809312010C94CD0FAA
:103A300080915302813249F68091E800877F80931C
:103A4000E8000E94211F809156028093470208954A
:103A500080915302813A09F0B8CF8091E800877FC6
:103A60008093E8008091E80080FFFCCF80914702BE
:103A7000C2CF84B7877F84BF0FB6F894A895809192
:103A80006000886180936000109260000FBE80E843
:103A900080936100109261000E94260B0E946F1FAC
:103AA0000E94CC1F8091E20084608093E2007894B1
:103AB0000E944E220E94280B88E091E00E94D20AC8
:103AC00080915202853019F00E942E0BF9CF0E948E
:103AD0000B1780915002882399F30E94391788238D
:103AE00079F30E94C91DECCF292F332723303105EC
:103AF00079F158F421303105F1F02230310519F116
:103B000090E080E030E020E01AC02132310599F1E8
:103B100022323105A9F7643098F770E0FB01EE0F0F
:103B2000FF1FE45DFE4F20813181685D7E4FFB0108
:103B3000808190E004C082E190E029EC39E0FA0154
:103B40003183208308958DE690E02CE539E0F7CFAE
:103B500099278130910561F028F0029789F6ECE20F
:103B6000F9E002C0E8E5F9E0849190E09F01E7CF39
:103B7000E0E4F9E0F9CF643008F0C2CFE62FF0E0DE
:103B8000EE0FFF1FEC5CFE4F2081318189E090E059
:103B9000D6CF80E189BD82E189BD09B400FEFDCFA9
:103BA0008091D8008F7D8093D8008091E000826062
:103BB0008093E0008091E00081FDFCCF0895AF92FA
:103BC000BF92CF92DF92FF920F931F93CF93DF9319
:103BD0006C01EB018A010E94401FF82E811123C065
:103BE0000115110539F0F80180819181C81BD90BAD
:103BF000C80ED91EB12CA12C2097A9F08091E80005
:103C000085FD22C08091E8008E778093E800011541
:103C10001105A1F0F80180819181A80EB91EB18231
:103C2000A08285E0F82E8F2DDF91CF911F910F910B
:103C3000FF90DF90CF90BF90AF9008950E94401FFB
:103C40008823D1F2F82EEFCFF60181916F01809396
:103C5000F1002197FFEFAF1ABF0ACECFFC01809190
:103C6000590290915A0286179707A0F061157105C5
:103C700029F49091E8009E779093E80090E0611518
:103C8000710551F4911108C08091E80082FF35C0A0
:103C900080E00895BC01F2CF809152028823C9F1DF
:103CA0008530C9F18091E80083FD31C08091E80042
:103CB00082FDEACF8091E80080FFE1CF2091F30000
:103CC0008091F200322F282F6115710519F02830EC
:103CD000310558F091E02830310509F090E020914D
:103CE000E8002E772093E800CACF81918093F100FD
:103CF000615071092F5F3F4FE7CF809152028823B7
:103D000041F0853041F08091E80083FFBDCF81E034
:103D1000089582E0089583E00895FC01809159029E
:103D200090915A0286179707A0F06115710529F442
:103D30008091E8008E778093E80090E0611571052E
:103D400051F4911108C08091E80082FF36C080E0F4
:103D50000895BC01F2CF809152028823D1F18530C1
:103D6000D1F18091E80083FD32C08091E80082FDAE
:103D7000EACF8091E80080FFE1CF2091F3008091AD
:103D8000F200322F282F6115710519F02830310506
:103D900058F091E02830310509F090E08091E8007A
:103DA0008E778093E800CACF84918093F10031969A
:103DB000615071092F5F3F4FE6CF809152028823F7
:103DC00041F0853041F08091E80083FFBCCF81E075
:103DD000089582E0089583E00895982F973028F0A1
:103DE0008F708093E90081E008959093E900242F7B
:103DF000762F50E0981731F07091EC002091ED0093
:103E00005091F00021FD02C09F5FE8CF3091EB00A0
:103E10003E7F3093EB003091ED003D7F3093ED001D
:103E20003091EB0031603093EB007093EC00209305
:103E3000ED005093F0002091EE0027FDE5CF80E0EB
:103E400008958091530287FF13C08091E80082FF9C
:103E500006C08091E8008B778093E80004C08091D1
:103E600052028111F2CF0895809152028823D9F332
:103E70008091E80080FFF8CF8091E8008E77ECCF4A
:103E80002091E4003091E50085E69091EC0090FFF0
:103E900006C09091E80090FF06C080E008959091E0
:103EA000E80092FDFACF90915202992391F095305B
:103EB00091F09091EB0095FD10C04091E40050917D
:103EC000E5002417350709F381509A01F1F684E0E3
:103ED000089582E0089583E0089581E008950E94A6
:103EE000DD1F0E94E51FE0EEF0E0808181608083AD
:103EF000E8EDF0E080818F77808319BCA7EDB0E01A
:103F00008C918E7F8C9380818F7E80831092510262
:103F100008950F931F93CF93DF930E94DD1F0E949C
:103F2000E51FC8EDD0E088818F778883888180681D
:103F3000888388818F7D888319BC109252021092E9
:103F40004E021092500210924F0200EE10E0F80163
:103F500080818B7F808388818160888342E060E0FC
:103F600080E00E94ED1EE1EEF0E080818E7F808394
:103F7000E2EEF0E0808181608083808188608083D0
:103F8000F80180818E7F8083888180618883DF91C2
:103F9000CF911F910F910895E8EDF0E080818F7E21
:103FA0008083E7EDF0E080818160808384E082BFE0
:103FB00081E0809351020C94891FE8EDF0E080814C
:103FC0008E7F80831092E20008951092DA001092A2
:103FD000E10008951F920F920FB60F9211242F93B4
:103FE0003F934F935F936F937F938F939F93AF9381
:103FF000BF93EF93FF938091E10082FF0BC080910C
:10400000E20082FF07C08091E1008B7F8093E10096
:104010000E944D228091DA0080FF19C08091D80063
:1040200080FF15C08091DA008E7F8093DA00809146
:10403000D90080FF94C080E189BD82E189BD09B4C7
:1040400000FEFDCF81E0809352020E94631C8091AC
:10405000E10080FF19C08091E20080FF15C08091CF
:10406000E2008E7F8093E2008091E2008061809385
:10407000E2008091D80080628093D80019BC85E06E
:10408000809352020E94751C8091E10084FF29C038
:104090008091E20084FF25C080E189BD82E189BD75
:1040A00009B400FEFDCF8091D8008F7D8093D800A9
:1040B0008091E1008F7E8093E1008091E2008F7E0D
:1040C0008093E2008091E20081608093E200809121
:1040D0004E02882309F449C084E0809352020E9472
:1040E000761C8091E10083FF29C08091E20083FF6C
:1040F00025C08091E100877F8093E10082E080937A
:10410000520210924E028091E1008E7F8093E10076
:104110008091E2008E7F8093E2008091E2008061D6
:104120008093E20042E060E080E00E94ED1E80911A
:10413000F00088608093F0000E94741CFF91EF9162
:10414000BF91AF919F918F917F916F915F914F91AF
:104150003F912F910F900FBE0F901F90189519BC93
:10416000109252020E94711C72CF8091E30087FD71
:1041700002C081E0B2CF83E0B0CF1F920F920FB6A2
:104180000F9211242F933F934F935F936F937F93DD
:104190008F939F93AF93BF93CF93EF93FF93C09170
:1041A000E900CF708091EC001092E9008091F0005E
:1041B000877F8093F00078940E94F9201092E900A4
:1041C0008091F00088608093F000C093E900FF9137
:1041D000EF91CF91BF91AF919F918F917F916F910F
:1041E0005F914F913F912F910F900FBE0F901F90B5
:1041F00018951F93CF93DF93CDB7DEB7AA970FB66D
:10420000F894DEBF0FBECDBFE3E5F2E08091F10090
:10421000819322E0EB35F207C9F70E948C1C809154
:10422000E80083FF42C080915302909154029A307B
:1042300008F03BC0E92FF0E0E05EFE4D0C94AF23A8
:104240002A214E2155214E215521A921CB2155212D
:1042500020222D22803879F0823839F5809157025A
:104260008F708093E9008091EB0085FB882780F9AF
:104270001092E90006C080914F0290915002911176
:1042800082609091E800977F9093E8008093F1001E
:104290001092F1008091E8008E772DC0282F2D7F9D
:1042A00021F48823D1F0823059F18091E80083FF16
:1042B0000AC08091E800877F8093E8008091EB003E
:1042C00080628093EB00AA960FB6F894DEBF0FBE13
:1042D000CDBFDF91CF911F9108958091550281301C
:1042E00021F7933009F080E0809350021092E900AA
:1042F0008091E800877F8093E8000E94211FD5CF3E
:10430000809155028111F2CF809157028F7069F22E
:104310008093E9002091EB0020FFE8CF933031F447
:104320008091EB0080628093EB00E0CF9091EB00F6
:1043300090619093EB0021E030E001C0220F8A955C
:10434000EAF72093EA001092EA008091EB0088607F
:10435000EACF8111AACF109155021F778091E30017
:104360008078812B8093E3008091E800877F8093A1
:10437000E8000E94211F8091E80080FFFCCF80911F
:10438000E30080688093E30083E0111101C082E0C4
:10439000809352028ACF8058823008F086CF809175
:1043A0005502909156028C3D23E09207A1F583E0DF
:1043B0008A838AE289834FB7F894DE01139620E05E
:1043C0003EE051E2E32FF0E050935700E49120FFEC
:1043D00003C0E295EF703F5FEF708E2F90E0EA3000
:1043E000C0F0C7968D939D932F5F243159F74FBF2F
:1043F0008091E800877F8093E8006AE270E0CE0158
:1044000001960E942E1E8091E8008B778093E80031
:104410004CCFC096E7CFAE014F5F5F4F6091570220
:104420000E94741DBC01892B09F43FCF9091E800D4
:10443000977F9093E80089819A810E948D1EE3CF37
:10444000803809F032CF8091E800877F8093E800C0
:1044500080914E028093F1001DCF811126CF909163
:104460005502923008F021CF8091E800877F809339
:10447000E80090934E020E94211F80914E028823F3
:1044800031F084E0809352020E94781C0ECF80911C
:10449000E30087FDF6CF81E0F5CF0895CF938091BB
:1044A0005202882399F0C091E900CF708091EC000E
:1044B00080FD0EC080E0C82B1092E9008091E800DA
:1044C00083FD0E94F920CF70C093E900CF91089539
:1044D00080E8F1CF0E9471226894B1110C940023FE
:1044E00008950E94E52288F09F5798F0B92F9927E8
:1044F000B751B0F0E1F0660F771F881F991F1AF0CF
:10450000BA95C9F714C0B13091F00E94FF22B1E012
:1045100008950C94FF22672F782F8827B85F39F011
:10452000B93FCCF3869577956795B395D9F73EF467
:1045300090958095709561957F4F8F4F9F4F08950F
:10454000E89409C097FB3EF490958095709561952D
:104550007F4F8F4F9F4F9923A9F0F92F96E9BB27E3
:104560009395F695879577956795B795F111F8CF5F
:10457000FAF4BB0F11F460FF1BC06F5F7F4F8F4FCA
:104580009F4F16C0882311F096E911C0772321F0C0
:104590009EE8872F762F05C0662371F096E8862F58
:1045A00070E060E02AF09A95660F771F881FDAF7AF
:1045B000880F9695879597F9089557FD9058440F61
:1045C000551F59F05F3F71F04795880F97FB991F72
:1045D00061F09F3F79F0879508951216130614062F
:1045E000551FF2CF4695F1DF08C0161617061806BC
:1045F000991FF1CF86957105610508940895E89497
:10460000BB2766277727CB0197F908950E941923C6
:104610000C948A230E947C2338F00E94832320F08C
:10462000952311F00C9473230C94792311240C948A
:1046300000230E94DD2270F3959FC1F3950F50E097
:10464000551F629FF001729FBB27F00DB11D639F44
:10465000AA27F00DB11DAA1F649F6627B00DA11DEA
:10466000661F829F2227B00DA11D621F739FB00D90
:10467000A11D621F839FA00D611D221F749F332700
:10468000A00D611D231F849F600D211D822F762F99
:104690006A2F11249F5750409AF0F1F088234AF076
:1046A000EE0FFF1FBB1F661F771F881F91505040E2
:1046B000A9F79E3F510580F00C9473230C940023BE
:1046C0005F3FE4F3983ED4F3869577956795B79569
:1046D000F795E7959F5FC1F7FE2B880F911D969583
:1046E000879597F9089597F99F6780E870E060E0F3
:1046F00008959FEF80EC089500240A94161617067B
:1047000018060906089500240A94121613061406C2
:1047100005060895092E0394000C11F4882352F025
:10472000BB0F40F4BF2B11F460FF04C06F5F7F4FDD
:104730008F4F9F4F089597FB072E16F4009407D0D4
:1047400077FD09D00E94B52307FC05D03EF4909573
:1047500081959F4F0895709561957F4F0895EE0F55
:10476000FF1F0590F491E02D0994AA1BBB1B51E19A
:1047700007C0AA1FBB1FA617B70710F0A61BB70BD1
:10478000881F991F5A95A9F780959095BC01CD0176
:104790000895F999FECF92BD81BDF89A992780B509
:1047A0000895A8E1B0E042E050E00C94F123262FF8
:1047B000F999FECF92BD81BDF89A019700B4021617
:1047C00039F01FBA20BD0FB6F894FA9AF99A0FBEC5
:1047D00008950196272F0E94D8230C94D723DC013B
:1047E000CB01FC01F999FECF06C0F2BDE1BDF89AFC
:1047F000319600B40D9241505040B8F70895F894A6
:02480000FFCFE8
:10480200F8012808140A321E811B131CEE1BB81B68
:10481200841B01F0F1F4F5F6F7363534979694954A
:104822009291903730313233404D3639970A4A0AE5
:0C483200140ADB096E098709A009B90906
:00000001FF
